:0400000080316A28B9
:100008007E14803120007F08FD00111C1628111075
:10001800BF309700FD3096008131E4218031803176
:10002800842080310B1D65280B118131C12180315D
:1000380020000D1E8D1E41280130BB070030BC3D3D
:10004800F4303B06031D41283C03031D4128BB0136
:10005800BC010130FC007C08B1073C303106031DAF
:100068003E28B1010130FC007C08B007183030068A
:100078000319B00180318420803120000D1A8D1AB7
:100088005D280130BB070030BC3DF4303B06031D42
:100098005D283C03031D5D28BB01BC010130FC0049
:1000A8007C08B007183030060319B001803184206D
:1000B800803120000D1A8D1E6528F330BB000130F9
:1000C800BC007D082000FF007E10090080316C28EC
:1000D800AB01AC01AD01AE01AF01B001B101B2019C
:1000E800B301013084008230850020308600003062
:1000F80087000B3082310C227E1020008231122AB8
:100108002000321C8C282A08B8003808AB008D283B
:10011800AB010A30F7000030F8003008B800B90128
:100128003808F2003908F3006430F0000030F100BC
:100138008131512180317108FA007008F90080314D
:10014800FF2080317708203E8600870101082000C3
:10015800BA003A08AC000A30F0000030F10030086C
:10016800B800B9013808F2003908F300813151218B
:1001780080317008203E8600870101082000BA00FF
:100188003A08AD000A30F7000030F8003108B8002E
:10019800B9013808F2003908F3006430F000003083
:1001A800F1008131512180317108FA007008F9009D
:1001B8008031FF2080317708203E860087010108C2
:1001C8002000BA003A08AE000A30F0000030F10012
:1001D8003108B800B9013808F2003908F300813154
:1001E80051217008203E8600870101082000BA00CE
:1001F8003A08AF0008002000B501F81F0A29F709DE
:10020800F809F70A0319F80AB501B50AFA1F1529FA
:10021800F909FA09F90A0319FA0A0130FB007B08FF
:10022800B506B601B7017708780403194429B40163
:10023800B40AF81B29290130F735F80D890B202954
:100248000130FB007B08B4071D290130B635B70D16
:10025800890B2A2978087A02031D3429770879023C
:10026800031C3B297708F9027808FA3B3614013059
:10027800F836F70C890B3C290130B402031D2929F3
:10028800350803194C29B609B709B60A0319B70A7C
:100298003708F8003608F7000800F601F31F5B2955
:1002A800F209F309F20A0319F30AF601F60AF11F33
:1002B8006229F009F109F00A0319F10A70087104BA
:1002C80003198929F501F50AF11B74290130F03564
:1002D800F10D890B6B290130F4007408F5076829C2
:1002E80071087302031D7A2970087202031C8029A1
:1002F8007008F2027108F33B0130F136F00C890BFB
:1003080081290130F502031D742976080319912902
:10031800F209F309F20A0319F30A7308F1007208E3
:10032800F00008006830210099005F309500FF3028
:1003380020009700FF30960085309800E0308B0051
:100348000130210091008C0123008C0124008C01D4
:1003580020008C01F03021008D0023008D01303009
:1003680024008D0022008D012000B201B101B001EE
:10037800F330BB000130BC0008000130F000700809
:100388002000B30705303302031CCE29B301220035
:100398008D01DB290130F00020003308FF3E890A77
:1003A800D629F035890BD529700822008D00200048
:1003B80033082B3E86008701010922008C000800C3
:1003C8000130F00070082000B20778303206031DB3
:1003D8000800B2010130F0007008B1073C30310666
:1003E800031D0800B1010130F0007008B007183093
:1003F8003006031D0800B0010800B73424347334F4
:100408007634E434D634D7343434F734F634083414
:10041800FE0012001E00FE0B0D2A003481319621C9
:040428008231152ADE
:020000040001F9
:04000E00E4FFFFDA32
:00000001FF
