:0400000080314128E2
:100008007E14803120007F08FD00111C1628111075
:10001800BF309700FD3096008131BC21803180319E
:100028005B2080310B1D1C280B11813199218031F7
:100038002000911C3C2891100D1E8D1E2E28013089
:10004800FC007C08B1073C3031060319B10180314E
:100058005B20803120000D1A8D1A3C280130FC00ED
:100068007C08B107183031060319B00180315B20D4
:100078007D082000FF007E10090080314328AB0175
:10008800AC01AD01AE01AF01B001B101B201B301E4
:10009800D930840081308500203086000030870008
:1000A8000B308131E4217E1020008131EA292000C3
:1000B800321C63282A08B8003808AB006428AB0152
:1000C8000A30F0000030F1003008B800B9013808F3
:1000D800F2003908F3008131282180317008203E70
:1000E8008600870101082000BA003A08AC000A30EF
:1000F800F7000030F8003008B800B9013808F200FD
:100108003908F3006430F0000030F1008131282113
:1001180080317108FA007008F9008031D6208031EA
:100128007708203E8600870101082000BA003A08B7
:10013800AD000A30F7000030F8003108B800B90106
:100148003808F2003908F3006430F0000030F1009C
:100158008131282180317108FA007008F900803156
:10016800D62080317708203E8600870101082000CC
:10017800BA003A08AE000A30F0000030F100310849
:10018800B800B9013808F2003908F3008131282194
:100198007008203E8600870101082000BA003A084E
:1001A800AF0008002000B501F81FE128F709F80999
:1001B800F70A0319F80AB501B50AFA1FEC28F90974
:1001C800FA09F90A0319FA0A0130FB007B08B50697
:1001D800B601B7017708780403191B29B401B40ADA
:1001E800F81B00290130F735F80D890BF728013085
:1001F800FB007B08B407F4280130B635B70D890B2E
:10020800012978087A02031D0B2977087902031C53
:1002180012297708F9027808FA3B36140130F836C3
:10022800F70C890B13290130B402031D0029350886
:1002380003192329B609B709B60A0319B70A3708F3
:10024800F8003608F7000800F601F31F3229F20912
:10025800F309F20A0319F30AF601F60AF11F39291C
:10026800F009F109F00A0319F10A70087104031979
:100278006029F501F50AF11B4B290130F035F10D24
:10028800890B42290130F4007408F5073F297108E9
:100298007302031D512970087202031C5729700844
:1002A800F2027108F33B0130F136F00C890B582942
:1002B8000130F502031D4B29760803196829F20954
:1002C800F309F20A0319F30A7308F1007208F0003F
:1002D80008006830210099005F309500FF30200049
:1002E8009700FF3096008530980007309C00FF305B
:1002F8009B00E0308B0091010330210091008C01BC
:1003080023008C0124008C0120008C01F030210096
:100318008D0023008D01303024008D0022008D01D6
:100328002000B201B101B00108000130F0007008EE
:100338002000B30705303302031CA629B3012200AD
:100348008D01B3290130F00020003308FF3E890AEF
:10035800AE29F035890BAD29700822008D002000E8
:1003680033082B3E86008701010922008C00080013
:100378000130F00070082000B20778303206031D03
:100388000800B2010130F0007008B1073C303106B6
:10039800031D0800B1010130F0007008B0071830E3
:1003A8003006031D0800B0010800B7342434733444
:1003B8007634E434D634D7343434F734F634083465
:1003C800FE0012001E00FE0BE529003481316D216C
:0403D8008131ED2959
:020000040001F9
:04000E00E4FFFFDA32
:00000001FF
