:0400000080314128E2
:100008007E14803120007F08FD00111C1628111075
:10001800BF309700FD3096008131C2218031803198
:10002800502080310B1D1C280B118131A2218031F9
:100038002000911C3C2891100D1B8D1B2E2801308F
:10004800FC007C08A6073C3026060319A60180316F
:100058005020803120000D1F8D1F3C280130FC00EE
:100068007C08A507183025060319A5018031502002
:100078007D082000FF007E10090080314328A00180
:10008800A101A201A301A401A501A601A701A8013C
:100098007E1020008131EA292000271C5C28E930E5
:1000A8008400813085000008AD002D08A4005D287B
:1000B800A4010A30F7000030F8002508AD00AE01B1
:1000C8002D08F2002E08F3006430F0000030F10033
:1000D8008131312180317108FA007008F9008031CE
:1000E800DF2080317808850077088400DF308407B6
:1000F8008130853D00082000AF002F08A3000A309A
:10010800F0000030F1002508AD00AE012D08F20026
:100118002E08F30081313121803171088500700883
:100128008400DF3084078130853D00082000AF005F
:100138002F08A2000A30F7000030F8002608AD00AA
:10014800AE012D08F2002E08F3006430F0000030F4
:10015800F1008131312180317108FA007008F9000D
:100168008031DF2080317808850077088400DF300F
:1001780084078130853D00082000AF002F08A100CA
:100188000A30F0000030F1002608AD00AE012D085D
:10019800F2002E08F30081313121710885007008C2
:1001A8008400DF3084078130853D00082000AF00DF
:1001B8002F08A00008002000AA01F81FEA28F70964
:1001C800F809F70A0319F80AAA01AA0AFA1FF52872
:1001D800F909FA09F90A0319FA0A0130FB007B0840
:1001E800AA06AB01AC017708780403192429A901F0
:1001F800A90AF81B09290130F735F80D890B0029E0
:100208000130FB007B08A907FD280130AB35AC0D98
:10021800890B0A2978087A02031D142977087902BC
:10022800031C1B297708F9027808FA3B2B140130C4
:10023800F836F70C890B1C290130A902031D09297E
:100248002A0803192C29AB09AC09AB0A0319AC0A13
:100258002C08F8002B08F7000800F601F31F3B29CB
:10026800F209F309F20A0319F30AF601F60AF11F73
:100278004229F009F109F00A0319F10A700871041A
:1002880003196929F501F50AF11B54290130F035E4
:10029800F10D890B4B290130F4007408F507482942
:1002A80071087302031D5A2970087202031C602921
:1002B8007008F2027108F33B0130F136F00C890B3B
:1002C80061290130F502031D5429760803197129A3
:1002D800F209F309F20A0319F30A7308F100720824
:1002E800F00008007030210099005F309500FF3061
:1002F80020009700FF3096008D3098007F309C00DA
:10030800BF309B00E0308B00910103302100910049
:100318008C0123008C0124008C0122008C01E03028
:1003280021008D0023008D01E03024008D00220083
:100338008D012000A701A601A50108000130F000E9
:1003480070082000A807063028020318A801220018
:100358008C018D0120002808203E860087010108B5
:1003680022008C000130F0002000280ABC29F0355A
:10037800890BBB29700822008D0008000130F000AD
:1003880070082000A70778302706031D0800A7017A
:100398000130F0007008A6073C302606031D08004F
:1003A800A6010130F0007008A50718302506031DC6
:1003B8000800A5010800FD3430345E343E3433347F
:1003C8002F346F3434347F343F3480348131762194
:0403D8008131ED2959
:020000040001F9
:04000E00E4FFFFDA32
:00000001FF
