:040000008031202803
:100008007E14803120007F08FC00111C1628111076
:100018003F309700FF30960081319921803180313F
:100028003A2080310B1D1B280B11813176217C0869
:100038002000FF007E10090080312228FD01AB015D
:10004800AC01AD01AE01AF01B001B101B201B630F2
:1000580084008130850020308600003087000B3016
:100068008131C1217E1020008131C7292000311C37
:1000780042282A08B7003708AB004328AB010A30EA
:10008800F7000030F8003008B700B8013708F20070
:100098003808F3006430F0000030F10081310721A6
:1000A80080317108FA007008F9008031B52080317C
:1000B8007708203E8600870101082000B90039082A
:1000C800AC000A30F0000030F1003008B700B80189
:1000D8003708F2003808F3008131072180317008B1
:1000E800203E8600870101082000B9003908AD00CC
:1000F8000A30F7000030F8007D08B700B80137086B
:10010800F2003808F3006430F0000030F10081316B
:10011800072180317108FA007008F9008031B52094
:1001280080317708203E8600870101082000B90049
:100138003908AE000A30F0000030F1007D08B70041
:10014800B8013708F2003808F30081310721700838
:10015800203E8600870101082000B9003908AF0059
:1001680008002000B401F81FC028F709F809F70AA9
:100178000319F80AB401B40AFA1FCB28F909FA09D5
:10018800F90A0319FA0A0130FB007B08B406B50125
:10019800B601770878040319FA28B301B30AF81BE3
:1001A800DF280130F735F80D890BD6280130FB0020
:1001B8007B08B307D3280130B535B60D890BE02885
:1001C80078087A02031DEA2877087902031CF128C7
:1001D8007708F9027808FA3B35140130F836F70C3D
:1001E800890BF2280130B302031DDF2834080319F4
:1001F8000229B509B609B50A0319B60A3608F8007E
:100208003508F7000800F601F31F1129F209F30970
:10021800F20A0319F30AF601F60AF11F1829F00980
:10022800F109F00A0319F10A7008710403193F294A
:10023800F501F50AF11B2A290130F035F10D890B7A
:1002480021290130F4007408F5071E29710873028A
:10025800031D302970087202031C36297008F20247
:100268007108F33B0130F136F00C890B3729013066
:10027800F502031D2A29760803194729F209F3090B
:10028800F20A0319F30A7308F1007208F000080073
:1002980068302100990095013F3020009700FF3019
:1002A80096008D309800E0308B00013021009100DD
:1002B8008C0123008C0124008C0120008C01F0307B
:1002C80021008D0023008D01303024008D00220094
:1002D8008D012000B101FD01B0019530BA00003058
:1002E800BB0008000130F00070082000B20705309C
:1002F8003202031C8329B20122008D0190290130AA
:10030800F00020003208FF3E890A8B29F035890B5E
:100318008A29700822008D00200032082B3E8600B2
:100328008701010922008C0008000130F0007008E4
:100338002000B10778303106031D0800B1010130F3
:10034800F0007008FD073C307D06031D0800FD0124
:100358000130F0007008B00718303006031D08009F
:10036800B0010800B734243473347634E434D63416
:10037800D7343434F734F6340834FE0012001E0043
:0E038800FE0BC229003481314C218131CA297B
:020000040001F9
:04000E00E4FFFFDA32
:00000001FF
